{
  "transactions": [
    {
      "hash": "0x46da4e3740cfa843feba4e33474e46f71e1d30f3df132e0eb0dbe4a524ffc726",
      "transactionType": "CALL",
      "contractName": null,
      "contractAddress": "0x40e305a43581be9b6181f500500d15fd6ee5bf71",
      "function": "mintNft(string)",
      "arguments": [
        "\"https://ipfs.io/ipfs/QmTs5wQ219xACrrLHbf5r1SkSkYi3cEJeYcmMhaTNaVwxC\""
      ],
      "transaction": {
        "from": "0x84cb5f2f6bcbe2bf3fbc7f9d6b983432b4171abb",
        "to": "0x40e305a43581be9b6181f500500d15fd6ee5bf71",
        "gas": "0x3d4d8",
        "value": "0x0",
        "input": "0xda86f4a90000000000000000000000000000000000000000000000000000000000000020000000000000000000000000000000000000000000000000000000000000004368747470733a2f2f697066732e696f2f697066732f516d547335775132313978414372724c486266357231536b536b59693363454a6559636d4d6861544e61567778430000000000000000000000000000000000000000000000000000000000",
        "nonce": "0x2f",
        "chainId": "0xaa36a7"
      },
      "additionalContracts": [],
      "isFixedGasLimit": false
    }
  ],
  "receipts": [
    {
      "status": "0x1",
      "cumulativeGasUsed": "0x950eea",
      "logs": [
        {
          "address": "0x40e305a43581be9b6181f500500d15fd6ee5bf71",
          "topics": [
            "0xddf252ad1be2c89b69c2b068fc378daa952ba7f163c4a11628f55a4df523b3ef",
            "0x0000000000000000000000000000000000000000000000000000000000000000",
            "0x00000000000000000000000084cb5f2f6bcbe2bf3fbc7f9d6b983432b4171abb",
            "0x0000000000000000000000000000000000000000000000000000000000000000"
          ],
          "data": "0x",
          "blockHash": "0x4140950d978f592e1ee8fde36c6f880e31d47e3e71131666e17d47ffeaef7c73",
          "blockNumber": "0x63f009",
          "transactionHash": "0x46da4e3740cfa843feba4e33474e46f71e1d30f3df132e0eb0dbe4a524ffc726",
          "transactionIndex": "0x2f",
          "logIndex": "0x87",
          "removed": false
        }
      ],
      "logsBloom": "0x000000000000000000000000000000000000000000000000000000002000000000000000080000000000000000000000000000000000000000000000000000000000000000000000000000080000000000000000000000008000000000000000000000000a0000000000000000000800001000000000000000000010000000000000000000000000000000000000000000000000000000000000000000000000000000000000000000000000000000000000000000080000000000000000000000000002000000000000000000000000000000000000000000000000000020000000000000000000000000000000000000000000000000000000000000000000",
      "type": "0x2",
      "transactionHash": "0x46da4e3740cfa843feba4e33474e46f71e1d30f3df132e0eb0dbe4a524ffc726",
      "transactionIndex": "0x2f",
      "blockHash": "0x4140950d978f592e1ee8fde36c6f880e31d47e3e71131666e17d47ffeaef7c73",
      "blockNumber": "0x63f009",
      "gasUsed": "0x2c61e",
      "effectiveGasPrice": "0x5cf7abedb",
      "from": "0x84cb5f2f6bcbe2bf3fbc7f9d6b983432b4171abb",
      "to": "0x40e305a43581be9b6181f500500d15fd6ee5bf71",
      "contractAddress": null
    }
  ],
  "libraries": [],
  "pending": [],
  "returns": {},
  "timestamp": 1724329909,
  "chain": 11155111,
  "commit": null
}