{
  "transactions": [
    {
      "hash": "0xbc5e828f086a1c3e50d634d2e1c480819f06ffa2831509deae4976233ef19b8d",
      "transactionType": "CALL",
      "contractName": null,
      "contractAddress": "0x6b09460733e936d40e0b50c5528e84aefc67ff3b",
      "function": "mintNft(string)",
      "arguments": [
        "\"ipfs://bafybeigotcis5ikox4c3f677vwvzndic2cwfzg2y33nfdpxbjvitre2q4a\""
      ],
      "transaction": {
        "from": "0x84cb5f2f6bcbe2bf3fbc7f9d6b983432b4171abb",
        "to": "0x6b09460733e936d40e0b50c5528e84aefc67ff3b",
        "gas": "0x40e7a",
        "value": "0x0",
        "input": "0xda86f4a900000000000000000000000000000000000000000000000000000000000000200000000000000000000000000000000000000000000000000000000000000042697066733a2f2f62616679626569676f7463697335696b6f78346333663637377677767a6e646963326377667a67327933336e66647078626a766974726532713461000000000000000000000000000000000000000000000000000000000000",
        "nonce": "0x2b",
        "chainId": "0xaa36a7"
      },
      "additionalContracts": [],
      "isFixedGasLimit": false
    }
  ],
  "receipts": [
    {
      "status": "0x1",
      "cumulativeGasUsed": "0xd620d3",
      "logs": [
        {
          "address": "0x6b09460733e936d40e0b50c5528e84aefc67ff3b",
          "topics": [
            "0xddf252ad1be2c89b69c2b068fc378daa952ba7f163c4a11628f55a4df523b3ef",
            "0x0000000000000000000000000000000000000000000000000000000000000000",
            "0x00000000000000000000000084cb5f2f6bcbe2bf3fbc7f9d6b983432b4171abb",
            "0x0000000000000000000000000000000000000000000000000000000000000000"
          ],
          "data": "0x",
          "blockHash": "0x3e15f495ec82e68aff1d4ca43d133bb85866927704bb69610c4548e540deddcb",
          "blockNumber": "0x63ef79",
          "transactionHash": "0xbc5e828f086a1c3e50d634d2e1c480819f06ffa2831509deae4976233ef19b8d",
          "transactionIndex": "0x73",
          "logIndex": "0xd6",
          "removed": false
        }
      ],
      "logsBloom": "0x00000000000000000000000000000000000000000000000000000000000000000000000008000000000000000000000000000000000000000000000000000000000000000000000000000008000000000000000000000000800000000000000000000000020000000000000000000800001000000000000000000010000000020000000000000000000000000000000000000000000000000000000000000000000000000000000000000000000000000000000000000c00000000000000000000000002000000000000000000000000000000000000000000000000000020000000000000000000000000000000000000000000000000000000000000000000",
      "type": "0x2",
      "transactionHash": "0xbc5e828f086a1c3e50d634d2e1c480819f06ffa2831509deae4976233ef19b8d",
      "transactionIndex": "0x73",
      "blockHash": "0x3e15f495ec82e68aff1d4ca43d133bb85866927704bb69610c4548e540deddcb",
      "blockNumber": "0x63ef79",
      "gasUsed": "0x2c612",
      "effectiveGasPrice": "0xafcfcdc8e",
      "from": "0x84cb5f2f6bcbe2bf3fbc7f9d6b983432b4171abb",
      "to": "0x6b09460733e936d40e0b50c5528e84aefc67ff3b",
      "contractAddress": null
    }
  ],
  "libraries": [],
  "pending": [],
  "returns": {},
  "timestamp": 1724327993,
  "chain": 11155111,
  "commit": null
}