{
  "transactions": [
    {
      "hash": "0x0b47b7ed1d60a57c8b125a7de253b45aec847d935f98c0b9bcfadc0d9bcf6ff7",
      "transactionType": "CALL",
      "contractName": null,
      "contractAddress": "0xa55bab92c06b35a191f9318ce0409e0b66c47a0c",
      "function": "mintNft(string)",
      "arguments": [
        "\"ipfs://bafybeigotcis5ikox4c3f677vwvzndic2cwfzg2y33nfdpxbjvitre2q4a\""
      ],
      "transaction": {
        "from": "0x84cb5f2f6bcbe2bf3fbc7f9d6b983432b4171abb",
        "to": "0xa55bab92c06b35a191f9318ce0409e0b66c47a0c",
        "gas": "0x40e7a",
        "value": "0x0",
        "input": "0xda86f4a900000000000000000000000000000000000000000000000000000000000000200000000000000000000000000000000000000000000000000000000000000042697066733a2f2f62616679626569676f7463697335696b6f78346333663637377677767a6e646963326377667a67327933336e66647078626a766974726532713461000000000000000000000000000000000000000000000000000000000000",
        "nonce": "0x2d",
        "chainId": "0xaa36a7"
      },
      "additionalContracts": [],
      "isFixedGasLimit": false
    }
  ],
  "receipts": [
    {
      "status": "0x1",
      "cumulativeGasUsed": "0x840e82",
      "logs": [
        {
          "address": "0xa55bab92c06b35a191f9318ce0409e0b66c47a0c",
          "topics": [
            "0xddf252ad1be2c89b69c2b068fc378daa952ba7f163c4a11628f55a4df523b3ef",
            "0x0000000000000000000000000000000000000000000000000000000000000000",
            "0x00000000000000000000000084cb5f2f6bcbe2bf3fbc7f9d6b983432b4171abb",
            "0x0000000000000000000000000000000000000000000000000000000000000000"
          ],
          "data": "0x",
          "blockHash": "0xe0939a9a8676fe29508032e6c88fe221b7c681c7ddd027d9f46d84df18e91f93",
          "blockNumber": "0x63efdd",
          "transactionHash": "0x0b47b7ed1d60a57c8b125a7de253b45aec847d935f98c0b9bcfadc0d9bcf6ff7",
          "transactionIndex": "0x27",
          "logIndex": "0x65",
          "removed": false
        }
      ],
      "logsBloom": "0x00000000000000000000000000000000000000000000000000000000000000000000000008000000000000000000000000000000000000000000000000000040000000000000000000000008000000000000000000000000800000000000000000000000020000000000000000000800001000000000000000000010000000000000000000000000000000000000000800000000000000000000000000000000000000000000000000000000000000000000000000000000000000000000000000000002000000000000000000000000000000000000000000000000000020000000000000000000000000000000000000000000000800000000000000000000",
      "type": "0x2",
      "transactionHash": "0x0b47b7ed1d60a57c8b125a7de253b45aec847d935f98c0b9bcfadc0d9bcf6ff7",
      "transactionIndex": "0x27",
      "blockHash": "0xe0939a9a8676fe29508032e6c88fe221b7c681c7ddd027d9f46d84df18e91f93",
      "blockNumber": "0x63efdd",
      "gasUsed": "0x2c612",
      "effectiveGasPrice": "0x64c3f6dbf",
      "from": "0x84cb5f2f6bcbe2bf3fbc7f9d6b983432b4171abb",
      "to": "0xa55bab92c06b35a191f9318ce0409e0b66c47a0c",
      "contractAddress": null
    }
  ],
  "libraries": [],
  "pending": [],
  "returns": {},
  "timestamp": 1724329322,
  "chain": 11155111,
  "commit": null
}